{
  "_format": "hh-sol-artifact-1",
  "contractName": "GrantNFT",
  "sourceName": "contracts/GrantNFT.sol",
  "abi": [
    {
      "inputs": [],
      "stateMutability": "nonpayable",
      "type": "constructor"
    },
    {
      "inputs": [
        {
          "internalType": "address",
          "name": "sender",
          "type": "address"
        },
        {
          "internalType": "uint256",
          "name": "tokenId",
          "type": "uint256"
        },
        {
          "internalType": "address",
          "name": "owner",
          "type": "address"
        }
      ],
      "name": "ERC721IncorrectOwner",
      "type": "error"
    },
    {
      "inputs": [
        {
          "internalType": "address",
          "name": "operator",
          "type": "address"
        },
        {
          "internalType": "uint256",
          "name": "tokenId",
          "type": "uint256"
        }
      ],
      "name": "ERC721InsufficientApproval",
      "type": "error"
    },
    {
      "inputs": [
        {
          "internalType": "address",
          "name": "approver",
          "type": "address"
        }
      ],
      "name": "ERC721InvalidApprover",
      "type": "error"
    },
    {
      "inputs": [
        {
          "internalType": "address",
          "name": "operator",
          "type": "address"
        }
      ],
      "name": "ERC721InvalidOperator",
      "type": "error"
    },
    {
      "inputs": [
        {
          "internalType": "address",
          "name": "owner",
          "type": "address"
        }
      ],
      "name": "ERC721InvalidOwner",
      "type": "error"
    },
    {
      "inputs": [
        {
          "internalType": "address",
          "name": "receiver",
          "type": "address"
        }
      ],
      "name": "ERC721InvalidReceiver",
      "type": "error"
    },
    {
      "inputs": [
        {
          "internalType": "address",
          "name": "sender",
          "type": "address"
        }
      ],
      "name": "ERC721InvalidSender",
      "type": "error"
    },
    {
      "inputs": [
        {
          "internalType": "uint256",
          "name": "tokenId",
          "type": "uint256"
        }
      ],
      "name": "ERC721NonexistentToken",
      "type": "error"
    },
    {
      "inputs": [
        {
          "internalType": "address",
          "name": "owner",
          "type": "address"
        }
      ],
      "name": "OwnableInvalidOwner",
      "type": "error"
    },
    {
      "inputs": [
        {
          "internalType": "address",
          "name": "account",
          "type": "address"
        }
      ],
      "name": "OwnableUnauthorizedAccount",
      "type": "error"
    },
    {
      "inputs": [],
      "name": "ReentrancyGuardReentrantCall",
      "type": "error"
    },
    {
      "anonymous": false,
      "inputs": [
        {
          "indexed": true,
          "internalType": "address",
          "name": "adminAddress",
          "type": "address"
        }
      ],
      "name": "AdminAddressSet",
      "type": "event"
    },
    {
      "anonymous": false,
      "inputs": [
        {
          "indexed": true,
          "internalType": "address",
          "name": "owner",
          "type": "address"
        },
        {
          "indexed": true,
          "internalType": "address",
          "name": "approved",
          "type": "address"
        },
        {
          "indexed": true,
          "internalType": "uint256",
          "name": "tokenId",
          "type": "uint256"
        }
      ],
      "name": "Approval",
      "type": "event"
    },
    {
      "anonymous": false,
      "inputs": [
        {
          "indexed": true,
          "internalType": "address",
          "name": "owner",
          "type": "address"
        },
        {
          "indexed": true,
          "internalType": "address",
          "name": "operator",
          "type": "address"
        },
        {
          "indexed": false,
          "internalType": "bool",
          "name": "approved",
          "type": "bool"
        }
      ],
      "name": "ApprovalForAll",
      "type": "event"
    },
    {
      "anonymous": false,
      "inputs": [
        {
          "indexed": false,
          "internalType": "uint256",
          "name": "_fromTokenId",
          "type": "uint256"
        },
        {
          "indexed": false,
          "internalType": "uint256",
          "name": "_toTokenId",
          "type": "uint256"
        }
      ],
      "name": "BatchMetadataUpdate",
      "type": "event"
    },
    {
      "anonymous": false,
      "inputs": [
        {
          "indexed": true,
          "internalType": "uint256",
          "name": "tokenId",
          "type": "uint256"
        },
        {
          "indexed": true,
          "internalType": "address",
          "name": "owner",
          "type": "address"
        }
      ],
      "name": "GrantBurned",
      "type": "event"
    },
    {
      "anonymous": false,
      "inputs": [
        {
          "indexed": true,
          "internalType": "uint256",
          "name": "tokenId",
          "type": "uint256"
        },
        {
          "indexed": true,
          "internalType": "address",
          "name": "owner",
          "type": "address"
        },
        {
          "indexed": false,
          "internalType": "uint8",
          "name": "tier",
          "type": "uint8"
        },
        {
          "indexed": false,
          "internalType": "uint256",
          "name": "allowance",
          "type": "uint256"
        }
      ],
      "name": "GrantMinted",
      "type": "event"
    },
    {
      "anonymous": false,
      "inputs": [
        {
          "indexed": true,
          "internalType": "address",
          "name": "marketplaceAddress",
          "type": "address"
        }
      ],
      "name": "MarketplaceAddressSet",
      "type": "event"
    },
    {
      "anonymous": false,
      "inputs": [
        {
          "indexed": false,
          "internalType": "uint256",
          "name": "_tokenId",
          "type": "uint256"
        }
      ],
      "name": "MetadataUpdate",
      "type": "event"
    },
    {
      "anonymous": false,
      "inputs": [
        {
          "indexed": true,
          "internalType": "address",
          "name": "previousOwner",
          "type": "address"
        },
        {
          "indexed": true,
          "internalType": "address",
          "name": "newOwner",
          "type": "address"
        }
      ],
      "name": "OwnershipTransferred",
      "type": "event"
    },
    {
      "anonymous": false,
      "inputs": [
        {
          "indexed": true,
          "internalType": "address",
          "name": "from",
          "type": "address"
        },
        {
          "indexed": true,
          "internalType": "address",
          "name": "to",
          "type": "address"
        },
        {
          "indexed": true,
          "internalType": "uint256",
          "name": "tokenId",
          "type": "uint256"
        }
      ],
      "name": "Transfer",
      "type": "event"
    },
    {
      "anonymous": false,
      "inputs": [
        {
          "indexed": true,
          "internalType": "address",
          "name": "owner",
          "type": "address"
        },
        {
          "indexed": false,
          "internalType": "uint256",
          "name": "amount",
          "type": "uint256"
        }
      ],
      "name": "Withdrawn",
      "type": "event"
    },
    {
      "inputs": [],
      "name": "TIER_1_ALLOWANCE",
      "outputs": [
        {
          "internalType": "uint256",
          "name": "",
          "type": "uint256"
        }
      ],
      "stateMutability": "view",
      "type": "function"
    },
    {
      "inputs": [],
      "name": "TIER_1_PRICE",
      "outputs": [
        {
          "internalType": "uint256",
          "name": "",
          "type": "uint256"
        }
      ],
      "stateMutability": "view",
      "type": "function"
    },
    {
      "inputs": [],
      "name": "TIER_1_URI",
      "outputs": [
        {
          "internalType": "string",
          "name": "",
          "type": "string"
        }
      ],
      "stateMutability": "view",
      "type": "function"
    },
    {
      "inputs": [],
      "name": "TIER_2_ALLOWANCE",
      "outputs": [
        {
          "internalType": "uint256",
          "name": "",
          "type": "uint256"
        }
      ],
      "stateMutability": "view",
      "type": "function"
    },
    {
      "inputs": [],
      "name": "TIER_2_PRICE",
      "outputs": [
        {
          "internalType": "uint256",
          "name": "",
          "type": "uint256"
        }
      ],
      "stateMutability": "view",
      "type": "function"
    },
    {
      "inputs": [],
      "name": "TIER_2_URI",
      "outputs": [
        {
          "internalType": "string",
          "name": "",
          "type": "string"
        }
      ],
      "stateMutability": "view",
      "type": "function"
    },
    {
      "inputs": [],
      "name": "TIER_3_ALLOWANCE",
      "outputs": [
        {
          "internalType": "uint256",
          "name": "",
          "type": "uint256"
        }
      ],
      "stateMutability": "view",
      "type": "function"
    },
    {
      "inputs": [],
      "name": "TIER_3_PRICE",
      "outputs": [
        {
          "internalType": "uint256",
          "name": "",
          "type": "uint256"
        }
      ],
      "stateMutability": "view",
      "type": "function"
    },
    {
      "inputs": [],
      "name": "TIER_3_URI",
      "outputs": [
        {
          "internalType": "string",
          "name": "",
          "type": "string"
        }
      ],
      "stateMutability": "view",
      "type": "function"
    },
    {
      "inputs": [],
      "name": "adminAddress",
      "outputs": [
        {
          "internalType": "address",
          "name": "",
          "type": "address"
        }
      ],
      "stateMutability": "view",
      "type": "function"
    },
    {
      "inputs": [
        {
          "internalType": "address",
          "name": "to",
          "type": "address"
        },
        {
          "internalType": "uint256",
          "name": "tokenId",
          "type": "uint256"
        }
      ],
      "name": "approve",
      "outputs": [],
      "stateMutability": "nonpayable",
      "type": "function"
    },
    {
      "inputs": [
        {
          "internalType": "address",
          "name": "owner",
          "type": "address"
        }
      ],
      "name": "balanceOf",
      "outputs": [
        {
          "internalType": "uint256",
          "name": "",
          "type": "uint256"
        }
      ],
      "stateMutability": "view",
      "type": "function"
    },
    {
      "inputs": [
        {
          "internalType": "address",
          "name": "user",
          "type": "address"
        }
      ],
      "name": "decrementAllowanceAndBurnIfExhausted",
      "outputs": [],
      "stateMutability": "nonpayable",
      "type": "function"
    },
    {
      "inputs": [
        {
          "internalType": "address",
          "name": "user",
          "type": "address"
        }
      ],
      "name": "getAllowance",
      "outputs": [
        {
          "internalType": "uint256",
          "name": "",
          "type": "uint256"
        }
      ],
      "stateMutability": "view",
      "type": "function"
    },
    {
      "inputs": [
        {
          "internalType": "uint256",
          "name": "tokenId",
          "type": "uint256"
        }
      ],
      "name": "getApproved",
      "outputs": [
        {
          "internalType": "address",
          "name": "",
          "type": "address"
        }
      ],
      "stateMutability": "view",
      "type": "function"
    },
    {
      "inputs": [
        {
          "internalType": "uint8",
          "name": "tier",
          "type": "uint8"
        }
      ],
      "name": "getTokenURIForTier",
      "outputs": [
        {
          "internalType": "string",
          "name": "",
          "type": "string"
        }
      ],
      "stateMutability": "pure",
      "type": "function"
    },
    {
      "inputs": [
        {
          "internalType": "uint256",
          "name": "",
          "type": "uint256"
        }
      ],
      "name": "grantToAllowance",
      "outputs": [
        {
          "internalType": "uint256",
          "name": "",
          "type": "uint256"
        }
      ],
      "stateMutability": "view",
      "type": "function"
    },
    {
      "inputs": [
        {
          "internalType": "address",
          "name": "owner",
          "type": "address"
        },
        {
          "internalType": "address",
          "name": "operator",
          "type": "address"
        }
      ],
      "name": "isApprovedForAll",
      "outputs": [
        {
          "internalType": "bool",
          "name": "",
          "type": "bool"
        }
      ],
      "stateMutability": "view",
      "type": "function"
    },
    {
      "inputs": [],
      "name": "marketplaceAddress",
      "outputs": [
        {
          "internalType": "address",
          "name": "",
          "type": "address"
        }
      ],
      "stateMutability": "view",
      "type": "function"
    },
    {
      "inputs": [],
      "name": "name",
      "outputs": [
        {
          "internalType": "string",
          "name": "",
          "type": "string"
        }
      ],
      "stateMutability": "view",
      "type": "function"
    },
    {
      "inputs": [],
      "name": "nftMarketplace",
      "outputs": [
        {
          "internalType": "address",
          "name": "",
          "type": "address"
        }
      ],
      "stateMutability": "view",
      "type": "function"
    },
    {
      "inputs": [],
      "name": "owner",
      "outputs": [
        {
          "internalType": "address",
          "name": "",
          "type": "address"
        }
      ],
      "stateMutability": "view",
      "type": "function"
    },
    {
      "inputs": [
        {
          "internalType": "uint256",
          "name": "tokenId",
          "type": "uint256"
        }
      ],
      "name": "ownerOf",
      "outputs": [
        {
          "internalType": "address",
          "name": "",
          "type": "address"
        }
      ],
      "stateMutability": "view",
      "type": "function"
    },
    {
      "inputs": [
        {
          "internalType": "uint8",
          "name": "tier",
          "type": "uint8"
        }
      ],
      "name": "purchaseGrantNFT",
      "outputs": [],
      "stateMutability": "payable",
      "type": "function"
    },
    {
      "inputs": [],
      "name": "renounceOwnership",
      "outputs": [],
      "stateMutability": "nonpayable",
      "type": "function"
    },
    {
      "inputs": [
        {
          "internalType": "address",
          "name": "from",
          "type": "address"
        },
        {
          "internalType": "address",
          "name": "to",
          "type": "address"
        },
        {
          "internalType": "uint256",
          "name": "tokenId",
          "type": "uint256"
        }
      ],
      "name": "safeTransferFrom",
      "outputs": [],
      "stateMutability": "nonpayable",
      "type": "function"
    },
    {
      "inputs": [
        {
          "internalType": "address",
          "name": "from",
          "type": "address"
        },
        {
          "internalType": "address",
          "name": "to",
          "type": "address"
        },
        {
          "internalType": "uint256",
          "name": "tokenId",
          "type": "uint256"
        },
        {
          "internalType": "bytes",
          "name": "data",
          "type": "bytes"
        }
      ],
      "name": "safeTransferFrom",
      "outputs": [],
      "stateMutability": "nonpayable",
      "type": "function"
    },
    {
      "inputs": [
        {
          "internalType": "address",
          "name": "operator",
          "type": "address"
        },
        {
          "internalType": "bool",
          "name": "approved",
          "type": "bool"
        }
      ],
      "name": "setApprovalForAll",
      "outputs": [],
      "stateMutability": "nonpayable",
      "type": "function"
    },
    {
      "inputs": [
        {
          "internalType": "address",
          "name": "_nftMarketplace",
          "type": "address"
        }
      ],
      "name": "setMarketplaceAddress",
      "outputs": [],
      "stateMutability": "nonpayable",
      "type": "function"
    },
    {
      "inputs": [
        {
          "internalType": "bytes4",
          "name": "interfaceId",
          "type": "bytes4"
        }
      ],
      "name": "supportsInterface",
      "outputs": [
        {
          "internalType": "bool",
          "name": "",
          "type": "bool"
        }
      ],
      "stateMutability": "view",
      "type": "function"
    },
    {
      "inputs": [],
      "name": "symbol",
      "outputs": [
        {
          "internalType": "string",
          "name": "",
          "type": "string"
        }
      ],
      "stateMutability": "view",
      "type": "function"
    },
    {
      "inputs": [
        {
          "internalType": "uint256",
          "name": "tokenId",
          "type": "uint256"
        }
      ],
      "name": "tokenURI",
      "outputs": [
        {
          "internalType": "string",
          "name": "",
          "type": "string"
        }
      ],
      "stateMutability": "view",
      "type": "function"
    },
    {
      "inputs": [
        {
          "internalType": "address",
          "name": "from",
          "type": "address"
        },
        {
          "internalType": "address",
          "name": "to",
          "type": "address"
        },
        {
          "internalType": "uint256",
          "name": "tokenId",
          "type": "uint256"
        }
      ],
      "name": "transferFrom",
      "outputs": [],
      "stateMutability": "nonpayable",
      "type": "function"
    },
    {
      "inputs": [
        {
          "internalType": "address",
          "name": "newOwner",
          "type": "address"
        }
      ],
      "name": "transferOwnership",
      "outputs": [],
      "stateMutability": "nonpayable",
      "type": "function"
    },
    {
      "inputs": [],
      "name": "withdraw",
      "outputs": [],
      "stateMutability": "nonpayable",
      "type": "function"
    }
  ],
  "bytecode": "0x608060405234801561001057600080fd5b50336040518060400160405280600881526020016711dc985b9d13919560c21b8152506040518060400160405280600381526020016211d39560ea1b815250816000908161005e91906101a1565b50600161006b82826101a1565b5050506001600160a01b03811661009c57604051631e4fbdf760e01b81526000600482015260240160405180910390fd5b6100a5816100b0565b50600160085561025f565b600780546001600160a01b038381166001600160a01b0319831681179093556040519116919082907f8be0079c531659141344cd1fd0a4f28419497f9722a3daafe3b4186f6b6457e090600090a35050565b634e487b7160e01b600052604160045260246000fd5b600181811c9082168061012c57607f821691505b60208210810361014c57634e487b7160e01b600052602260045260246000fd5b50919050565b601f82111561019c57806000526020600020601f840160051c810160208510156101795750805b601f840160051c820191505b818110156101995760008155600101610185565b50505b505050565b81516001600160401b038111156101ba576101ba610102565b6101ce816101c88454610118565b84610152565b6020601f82116001811461020257600083156101ea5750848201515b600019600385901b1c1916600184901b178455610199565b600084815260208120601f198516915b828110156102325787850151825560209485019460019092019101610212565b50848210156102505786840151600019600387901b60f8161c191681555b50505050600190811b01905550565b6122ab8061026e6000396000f3fe6080604052600436106102045760003560e01c806370a0823111610118578063b47cc556116100a0578063daa17f491161006f578063daa17f491461058e578063e985e9c5146105ae578063eb5a662e146105ce578063f2fde38b146105ee578063fc6f94681461060e57600080fd5b8063b47cc55614610519578063b88d4fde14610539578063c87b56dd14610559578063d2e073131461057957600080fd5b806395d89b41116100e757806395d89b411461048f57806397a3ba50146104a4578063a0f59271146104d1578063a22cb465146104e4578063ad4c66591461050457600080fd5b806370a0823114610427578063715018a614610447578063888e5d4c1461045c5780638da5cb5b1461047157600080fd5b806323b872dd1161019b5780634608eb771161016a5780634608eb77146103a45780634bc0b116146103bd57806351ef182d146103d25780636352211e146103f2578063675f4f021461041257600080fd5b806323b872dd1461032f5780633ccfd60b1461034f5780633ff2a3e81461036457806342842e0e1461038457600080fd5b8063095ea7b3116101d7578063095ea7b3146102b85780630e79e406146102da57806310005d66146102fd578063179fc1641461031657600080fd5b806301ffc9a714610209578063046db5ca1461023e57806306fdde031461026b578063081812fc14610280575b600080fd5b34801561021557600080fd5b50610229610224366004611be1565b61062e565b60405190151581526020015b60405180910390f35b34801561024a57600080fd5b5061025e610259366004611bfe565b610659565b6040516102359190611c71565b34801561027757600080fd5b5061025e61071e565b34801561028c57600080fd5b506102a061029b366004611c84565b6107b0565b6040516001600160a01b039091168152602001610235565b3480156102c457600080fd5b506102d86102d3366004611cb4565b6107d9565b005b3480156102e657600080fd5b506102ef600181565b604051908152602001610235565b34801561030957600080fd5b506102ef64d18c2e280081565b34801561032257600080fd5b506102ef64a2fb40580081565b34801561033b57600080fd5b506102d861034a366004611cde565b6107e8565b34801561035b57600080fd5b506102d8610873565b34801561037057600080fd5b506102d861037f366004611d1b565b6109cc565b34801561039057600080fd5b506102d861039f366004611cde565b610cd0565b3480156103b057600080fd5b506102ef64746a52880081565b3480156103c957600080fd5b5061025e610cf0565b3480156103de57600080fd5b50600e546102a0906001600160a01b031681565b3480156103fe57600080fd5b506102a061040d366004611c84565b610d0c565b34801561041e57600080fd5b5061025e610d17565b34801561043357600080fd5b506102ef610442366004611d1b565b610d33565b34801561045357600080fd5b506102d8610d7b565b34801561046857600080fd5b5061025e610d8d565b34801561047d57600080fd5b506007546001600160a01b03166102a0565b34801561049b57600080fd5b5061025e610da9565b3480156104b057600080fd5b506102ef6104bf366004611c84565b600d6020526000908152604090205481565b6102d86104df366004611bfe565b610db8565b3480156104f057600080fd5b506102d86104ff366004611d36565b610f71565b34801561051057600080fd5b506102ef600281565b34801561052557600080fd5b506102d8610534366004611d1b565b610f7c565b34801561054557600080fd5b506102d8610554366004611d88565b611016565b34801561056557600080fd5b5061025e610574366004611c84565b61102e565b34801561058557600080fd5b506102ef600381565b34801561059a57600080fd5b50600a546102a0906001600160a01b031681565b3480156105ba57600080fd5b506102296105c9366004611e6c565b61113f565b3480156105da57600080fd5b506102ef6105e9366004611d1b565b61116d565b3480156105fa57600080fd5b506102d8610609366004611d1b565b61122f565b34801561061a57600080fd5b50600b546102a0906001600160a01b031681565b60006001600160e01b03198216632483248360e11b148061065357506106538261126a565b92915050565b60608160ff16600103610685576040518060a001604052806064815260200161214a6064913992915050565b8160ff166002036106af576040518060a00160405280606481526020016122126064913992915050565b8160ff166003036106d9576040518060a00160405280606481526020016121ae6064913992915050565b60405162461bcd60e51b8152602060048201526015602482015274125b9d985b1a59081d1a595c881cd95b1958dd1959605a1b60448201526064015b60405180910390fd5b60606000805461072d90611e9f565b80601f016020809104026020016040519081016040528092919081815260200182805461075990611e9f565b80156107a65780601f1061077b576101008083540402835291602001916107a6565b820191906000526020600020905b81548152906001019060200180831161078957829003601f168201915b5050505050905090565b60006107bb826112ba565b506000828152600460205260409020546001600160a01b0316610653565b6107e48282336112f3565b5050565b6001600160a01b03821661081257604051633250574960e11b815260006004820152602401610715565b600061081f838333611300565b9050836001600160a01b0316816001600160a01b03161461086d576040516364283d7b60e01b81526001600160a01b0380861660048301526024820184905282166044820152606401610715565b50505050565b61087b611390565b6108836113bd565b47806108c85760405162461bcd60e51b81526020600482015260146024820152734e6f2066756e647320746f20776974686472617760601b6044820152606401610715565b60006108dc6007546001600160a01b031690565b6001600160a01b03168260405160006040518083038185875af1925050503d8060008114610926576040519150601f19603f3d011682016040523d82523d6000602084013e61092b565b606091505b50509050806109705760405162461bcd60e51b815260206004820152601160248201527015da5d1a191c985dd85b0819985a5b1959607a1b6044820152606401610715565b6007546001600160a01b03166001600160a01b03167f7084f5476618d8e60b11ef0d7d3f06914655adb8793e28ff7f018d4c76d505d5836040516109b691815260200190565b60405180910390a250506109ca6001600855565b565b600e546001600160a01b031633146109f65760405162461bcd60e51b815260040161071590611ed9565b6001600160a01b0381166000908152600c602052604090208054610a5c5760405162461bcd60e51b815260206004820152601c60248201527f5573657220646f6573206e6f74206f776e20616e79206772616e7473000000006044820152606401610715565b60005b8154811015610c7a576000828281548110610a7c57610a7c611f22565b90600052602060002001549050836001600160a01b0316610a9c82610d0c565b6001600160a01b031614610b4957815b8354610aba90600190611f4e565b811015610b0e5783610acd826001611f61565b81548110610add57610add611f22565b9060005260206000200154848281548110610afa57610afa611f22565b600091825260209091200155600101610aac565b5082805480610b1f57610b1f611f74565b600190038181906000526020600020016000905590558180610b4090611f8a565b92505050610c68565b6000818152600d602052604090205415610c66576000818152600d60205260408120805460019290610b7c908490611f4e565b90915550506000818152600d6020526040812054900361086d57610b9f816113e7565b6040516001600160a01b0385169082907fa0842786a23266a4cd5246cac6f0d5a7b66308b41f33765c9f324e776cab276a90600090a3815b8354610be590600190611f4e565b811015610c395783610bf8826001611f61565b81548110610c0857610c08611f22565b9060005260206000200154848281548110610c2557610c25611f22565b600091825260209091200155600101610bd7565b5082805480610c4a57610c4a611f74565b6001900381819060005260206000200160009055905550505050565b505b80610c7281611fa1565b915050610a5f565b5060405162461bcd60e51b815260206004820152602160248201527f4e6f20616c6c6f77616e6365206c65667420666f722075736572206772616e746044820152607360f81b6064820152608401610715565b50565b610ceb83838360405180602001604052806000815250611016565b505050565b6040518060a00160405280606481526020016121ae6064913981565b6000610653826112ba565b6040518060a00160405280606481526020016122126064913981565b60006001600160a01b038216610d5f576040516322718ad960e21b815260006004820152602401610715565b506001600160a01b031660009081526003602052604090205490565b610d83611390565b6109ca6000611422565b6040518060a001604052806064815260200161214a6064913981565b60606001805461072d90611e9f565b60018160ff1610158015610dd0575060038160ff1611155b610e145760405162461bcd60e51b8152602060048201526015602482015274125b9d985b1a59081d1a595c881cd95b1958dd1959605a1b6044820152606401610715565b60008160ff16600114610e42578160ff16600214610e375764d18c2e2800610e49565b64a2fb405800610e49565b64746a5288005b905060008260ff16600114610e71578260ff16600214610e6a576003610e74565b6002610e74565b60015b9050813414610ec55760405162461bcd60e51b815260206004820152601860248201527f496e636f7272656374207061796d656e7420616d6f756e7400000000000000006044820152606401610715565b600160096000828254610ed89190611f61565b9091555050600954610eea3382611474565b610efc81610ef786610659565b61148e565b6000818152600d6020908152604080832085905533808452600c8352818420805460018101825590855293839020909301849055805160ff8816815291820185905283917fbcbb8b1c9e499a43890c0508f7cf41259fe380b60fc53717dd5c6eaec78325c7910160405180910390a350505050565b6107e43383836114de565b610f84611390565b6001600160a01b038116610fcc5760405162461bcd60e51b815260206004820152600f60248201526e496e76616c6964206164647265737360881b6044820152606401610715565b600e80546001600160a01b0319166001600160a01b0383169081179091556040517fbf54ea83ad908567bc5ad3199eab9f6f191d26c28764b57f9927110b97a971fd90600090a250565b6110218484846107e8565b61086d338585858561157d565b6060611039826112ba565b506000828152600660205260408120805461105390611e9f565b80601f016020809104026020016040519081016040528092919081815260200182805461107f90611e9f565b80156110cc5780601f106110a1576101008083540402835291602001916110cc565b820191906000526020600020905b8154815290600101906020018083116110af57829003601f168201915b5050505050905060006110ea60408051602081019091526000815290565b905080516000036110fc575092915050565b81511561112e578082604051602001611116929190611fba565b60405160208183030381529060405292505050919050565b611137846116a8565b949350505050565b6001600160a01b03918216600090815260056020908152604080832093909416825291909152205460ff1690565b600e546000906001600160a01b0316331461119a5760405162461bcd60e51b815260040161071590611ed9565b6001600160a01b0382166000908152600c6020526040812090805b82548110156112255760008382815481106111d2576111d2611f22565b90600052602060002001549050856001600160a01b03166111f282610d0c565b6001600160a01b03160361121c576000818152600d60205260409020546112199084611f61565b92505b506001016111b5565b509150505b919050565b611237611390565b6001600160a01b03811661126157604051631e4fbdf760e01b815260006004820152602401610715565b610ccd81611422565b60006001600160e01b031982166380ac58cd60e01b148061129b57506001600160e01b03198216635b5e139f60e01b145b8061065357506301ffc9a760e01b6001600160e01b0319831614610653565b6000818152600260205260408120546001600160a01b03168061065357604051637e27328960e01b815260048101849052602401610715565b610ceb838383600161171d565b6000828152600260205260408120546001600160a01b0316801580159061132f57506001600160a01b03851615155b1561137c5760405162461bcd60e51b815260206004820152601a60248201527f536f756c626f756e643a205472616e73666572206661696c65640000000000006044820152606401610715565b611387858585611823565b95945050505050565b6007546001600160a01b031633146109ca5760405163118cdaa760e01b8152336004820152602401610715565b6002600854036113e057604051633ee5aeb560e01b815260040160405180910390fd5b6002600855565b60006113f66000836000611300565b90506001600160a01b0381166107e457604051637e27328960e01b815260048101839052602401610715565b600780546001600160a01b038381166001600160a01b0319831681179093556040519116919082907f8be0079c531659141344cd1fd0a4f28419497f9722a3daafe3b4186f6b6457e090600090a35050565b6107e482826040518060200160405280600081525061191c565b60008281526006602052604090206114a68282612030565b506040518281527ff8e1a15aba9398e019f0b49df1a4fde98ee17ae345cb5f6b5e2c27f5033e8ce79060200160405180910390a15050565b6001600160a01b03821661151057604051630b61174360e31b81526001600160a01b0383166004820152602401610715565b6001600160a01b03838116600081815260056020908152604080832094871680845294825291829020805460ff191686151590811790915591519182527f17307eab39ab6107e8899845ad3d59bd9653f200f220920489ca2b5937696c31910160405180910390a3505050565b6001600160a01b0383163b156116a157604051630a85bd0160e11b81526001600160a01b0384169063150b7a02906115bf9088908890879087906004016120ef565b6020604051808303816000875af19250505080156115fa575060408051601f3d908101601f191682019092526115f79181019061212c565b60015b611663573d808015611628576040519150601f19603f3d011682016040523d82523d6000602084013e61162d565b606091505b50805160000361165b57604051633250574960e11b81526001600160a01b0385166004820152602401610715565b805181602001fd5b6001600160e01b03198116630a85bd0160e11b1461169f57604051633250574960e11b81526001600160a01b0385166004820152602401610715565b505b5050505050565b60606116b3826112ba565b5060006116cb60408051602081019091526000815290565b905060008151116116eb5760405180602001604052806000815250611716565b806116f584611934565b604051602001611706929190611fba565b6040516020818303038152906040525b9392505050565b808061173157506001600160a01b03821615155b156117f3576000611741846112ba565b90506001600160a01b0383161580159061176d5750826001600160a01b0316816001600160a01b031614155b8015611780575061177e818461113f565b155b156117a95760405163a9fbf51f60e01b81526001600160a01b0384166004820152602401610715565b81156117f15783856001600160a01b0316826001600160a01b03167f8c5be1e5ebec7d5bd14f71427d1e84f3dd0314c0f7b2291e5b200ac8c7c3b92560405160405180910390a45b505b5050600090815260046020526040902080546001600160a01b0319166001600160a01b0392909216919091179055565b6000828152600260205260408120546001600160a01b0390811690831615611850576118508184866119c7565b6001600160a01b0381161561188e5761186d60008560008061171d565b6001600160a01b038116600090815260036020526040902080546000190190555b6001600160a01b038516156118bd576001600160a01b0385166000908152600360205260409020805460010190555b60008481526002602052604080822080546001600160a01b0319166001600160a01b0389811691821790925591518793918516917fddf252ad1be2c89b69c2b068fc378daa952ba7f163c4a11628f55a4df523b3ef91a4949350505050565b6119268383611a2b565b610ceb33600085858561157d565b6060600061194183611a90565b600101905060008167ffffffffffffffff81111561196157611961611d72565b6040519080825280601f01601f19166020018201604052801561198b576020820181803683370190505b5090508181016020015b600019016f181899199a1a9b1b9c1cb0b131b232b360811b600a86061a8153600a850494508461199557509392505050565b6119d2838383611b68565b610ceb576001600160a01b038316611a0057604051637e27328960e01b815260048101829052602401610715565b60405163177e802f60e01b81526001600160a01b038316600482015260248101829052604401610715565b6001600160a01b038216611a5557604051633250574960e11b815260006004820152602401610715565b6000611a6383836000611300565b90506001600160a01b03811615610ceb576040516339e3563760e11b815260006004820152602401610715565b60008072184f03e93ff9f4daa797ed6e38ed64bf6a1f0160401b8310611acf5772184f03e93ff9f4daa797ed6e38ed64bf6a1f0160401b830492506040015b6d04ee2d6d415b85acef81000000008310611afb576d04ee2d6d415b85acef8100000000830492506020015b662386f26fc100008310611b1957662386f26fc10000830492506010015b6305f5e1008310611b31576305f5e100830492506008015b6127108310611b4557612710830492506004015b60648310611b57576064830492506002015b600a83106106535760010192915050565b60006001600160a01b038316158015906111375750826001600160a01b0316846001600160a01b03161480611ba25750611ba2848461113f565b806111375750506000908152600460205260409020546001600160a01b03908116911614919050565b6001600160e01b031981168114610ccd57600080fd5b600060208284031215611bf357600080fd5b813561171681611bcb565b600060208284031215611c1057600080fd5b813560ff8116811461171657600080fd5b60005b83811015611c3c578181015183820152602001611c24565b50506000910152565b60008151808452611c5d816020860160208601611c21565b601f01601f19169290920160200192915050565b6020815260006117166020830184611c45565b600060208284031215611c9657600080fd5b5035919050565b80356001600160a01b038116811461122a57600080fd5b60008060408385031215611cc757600080fd5b611cd083611c9d565b946020939093013593505050565b600080600060608486031215611cf357600080fd5b611cfc84611c9d565b9250611d0a60208501611c9d565b929592945050506040919091013590565b600060208284031215611d2d57600080fd5b61171682611c9d565b60008060408385031215611d4957600080fd5b611d5283611c9d565b915060208301358015158114611d6757600080fd5b809150509250929050565b634e487b7160e01b600052604160045260246000fd5b60008060008060808587031215611d9e57600080fd5b611da785611c9d565b9350611db560208601611c9d565b925060408501359150606085013567ffffffffffffffff811115611dd857600080fd5b8501601f81018713611de957600080fd5b803567ffffffffffffffff811115611e0357611e03611d72565b604051601f8201601f19908116603f0116810167ffffffffffffffff81118282101715611e3257611e32611d72565b604052818152828201602001891015611e4a57600080fd5b8160208401602083013760006020838301015280935050505092959194509250565b60008060408385031215611e7f57600080fd5b611e8883611c9d565b9150611e9660208401611c9d565b90509250929050565b600181811c90821680611eb357607f821691505b602082108103611ed357634e487b7160e01b600052602260045260246000fd5b50919050565b60208082526029908201527f43616c6c6572206973206e6f7420746865204e46544d61726b6574706c6163656040820152680818dbdb9d1c9858dd60ba1b606082015260800190565b634e487b7160e01b600052603260045260246000fd5b634e487b7160e01b600052601160045260246000fd5b8181038181111561065357610653611f38565b8082018082111561065357610653611f38565b634e487b7160e01b600052603160045260246000fd5b600081611f9957611f99611f38565b506000190190565b600060018201611fb357611fb3611f38565b5060010190565b60008351611fcc818460208801611c21565b835190830190611fe0818360208801611c21565b01949350505050565b601f821115610ceb57806000526020600020601f840160051c810160208510156120105750805b601f840160051c820191505b818110156116a1576000815560010161201c565b815167ffffffffffffffff81111561204a5761204a611d72565b61205e816120588454611e9f565b84611fe9565b6020601f821160018114612092576000831561207a5750848201515b600019600385901b1c1916600184901b1784556116a1565b600084815260208120601f198516915b828110156120c257878501518255602094850194600190920191016120a2565b50848210156120e05786840151600019600387901b60f8161c191681555b50505050600190811b01905550565b6001600160a01b038581168252841660208201526040810183905260806060820181905260009061212290830184611c45565b9695505050505050565b60006020828403121561213e57600080fd5b815161171681611bcb56fe68747470733a2f2f62656967652d61647669736f72792d6d617274656e2d3337352e6d7970696e6174612e636c6f75642f697066732f516d51746d4e486b5a674a71436874616d4e524d53717a444e445a42756466655177366d744752396e735936426768747470733a2f2f62656967652d61647669736f72792d6d617274656e2d3337352e6d7970696e6174612e636c6f75642f697066732f516d646e4248617a744a47545138377169387538734137414566574a5657774c77654665787458484a4c3332615668747470733a2f2f62656967652d61647669736f72792d6d617274656e2d3337352e6d7970696e6174612e636c6f75642f697066732f516d654c6442486143577a78676f345646785165686d7147697772396a51575079624a616d4a5a6f627879545843a26469706673582212201794f83aa5db0ac29df026892f94e8397313f316db4eee966328584c7ce5ae4564736f6c634300081b0033",
  "linkReferences": {},
  "deployedLinkReferences": {}
}