{
  "_format": "hh-sol-artifact-1",
  "contractName": "NFTMarketplace",
  "sourceName": "contracts/NFTMarketplace.sol",
  "abi": [
    {
      "inputs": [],
      "stateMutability": "nonpayable",
      "type": "constructor"
    },
    {
      "inputs": [
        {
          "internalType": "address",
          "name": "sender",
          "type": "address"
        },
        {
          "internalType": "uint256",
          "name": "tokenId",
          "type": "uint256"
        },
        {
          "internalType": "address",
          "name": "owner",
          "type": "address"
        }
      ],
      "name": "ERC721IncorrectOwner",
      "type": "error"
    },
    {
      "inputs": [
        {
          "internalType": "address",
          "name": "operator",
          "type": "address"
        },
        {
          "internalType": "uint256",
          "name": "tokenId",
          "type": "uint256"
        }
      ],
      "name": "ERC721InsufficientApproval",
      "type": "error"
    },
    {
      "inputs": [
        {
          "internalType": "address",
          "name": "approver",
          "type": "address"
        }
      ],
      "name": "ERC721InvalidApprover",
      "type": "error"
    },
    {
      "inputs": [
        {
          "internalType": "address",
          "name": "operator",
          "type": "address"
        }
      ],
      "name": "ERC721InvalidOperator",
      "type": "error"
    },
    {
      "inputs": [
        {
          "internalType": "address",
          "name": "owner",
          "type": "address"
        }
      ],
      "name": "ERC721InvalidOwner",
      "type": "error"
    },
    {
      "inputs": [
        {
          "internalType": "address",
          "name": "receiver",
          "type": "address"
        }
      ],
      "name": "ERC721InvalidReceiver",
      "type": "error"
    },
    {
      "inputs": [
        {
          "internalType": "address",
          "name": "sender",
          "type": "address"
        }
      ],
      "name": "ERC721InvalidSender",
      "type": "error"
    },
    {
      "inputs": [
        {
          "internalType": "uint256",
          "name": "tokenId",
          "type": "uint256"
        }
      ],
      "name": "ERC721NonexistentToken",
      "type": "error"
    },
    {
      "inputs": [],
      "name": "ReentrancyGuardReentrantCall",
      "type": "error"
    },
    {
      "anonymous": false,
      "inputs": [
        {
          "indexed": true,
          "internalType": "address",
          "name": "owner",
          "type": "address"
        },
        {
          "indexed": true,
          "internalType": "address",
          "name": "approved",
          "type": "address"
        },
        {
          "indexed": true,
          "internalType": "uint256",
          "name": "tokenId",
          "type": "uint256"
        }
      ],
      "name": "Approval",
      "type": "event"
    },
    {
      "anonymous": false,
      "inputs": [
        {
          "indexed": true,
          "internalType": "address",
          "name": "owner",
          "type": "address"
        },
        {
          "indexed": true,
          "internalType": "address",
          "name": "operator",
          "type": "address"
        },
        {
          "indexed": false,
          "internalType": "bool",
          "name": "approved",
          "type": "bool"
        }
      ],
      "name": "ApprovalForAll",
      "type": "event"
    },
    {
      "anonymous": false,
      "inputs": [
        {
          "indexed": false,
          "internalType": "uint256",
          "name": "_fromTokenId",
          "type": "uint256"
        },
        {
          "indexed": false,
          "internalType": "uint256",
          "name": "_toTokenId",
          "type": "uint256"
        }
      ],
      "name": "BatchMetadataUpdate",
      "type": "event"
    },
    {
      "anonymous": false,
      "inputs": [
        {
          "indexed": true,
          "internalType": "address",
          "name": "user",
          "type": "address"
        },
        {
          "indexed": false,
          "internalType": "uint256",
          "name": "amount",
          "type": "uint256"
        }
      ],
      "name": "FeesWithdrawn",
      "type": "event"
    },
    {
      "anonymous": false,
      "inputs": [
        {
          "indexed": true,
          "internalType": "address",
          "name": "seller",
          "type": "address"
        },
        {
          "indexed": false,
          "internalType": "uint256",
          "name": "amount",
          "type": "uint256"
        }
      ],
      "name": "FundsWithdrawn",
      "type": "event"
    },
    {
      "anonymous": false,
      "inputs": [
        {
          "indexed": true,
          "internalType": "uint256",
          "name": "tokenId",
          "type": "uint256"
        },
        {
          "indexed": true,
          "internalType": "address",
          "name": "owner",
          "type": "address"
        }
      ],
      "name": "MarketItemBurned",
      "type": "event"
    },
    {
      "anonymous": false,
      "inputs": [
        {
          "indexed": true,
          "internalType": "uint256",
          "name": "tokenId",
          "type": "uint256"
        },
        {
          "indexed": false,
          "internalType": "address",
          "name": "seller",
          "type": "address"
        },
        {
          "indexed": false,
          "internalType": "address",
          "name": "owner",
          "type": "address"
        },
        {
          "indexed": false,
          "internalType": "uint256",
          "name": "price",
          "type": "uint256"
        },
        {
          "indexed": false,
          "internalType": "bool",
          "name": "sold",
          "type": "bool"
        }
      ],
      "name": "MarketItemCreated",
      "type": "event"
    },
    {
      "anonymous": false,
      "inputs": [
        {
          "indexed": true,
          "internalType": "uint256",
          "name": "tokenId",
          "type": "uint256"
        },
        {
          "indexed": false,
          "internalType": "address",
          "name": "seller",
          "type": "address"
        },
        {
          "indexed": false,
          "internalType": "uint256",
          "name": "newPrice",
          "type": "uint256"
        }
      ],
      "name": "MarketItemPriceUpdated",
      "type": "event"
    },
    {
      "anonymous": false,
      "inputs": [
        {
          "indexed": true,
          "internalType": "uint256",
          "name": "tokenId",
          "type": "uint256"
        },
        {
          "indexed": false,
          "internalType": "address",
          "name": "seller",
          "type": "address"
        },
        {
          "indexed": false,
          "internalType": "uint256",
          "name": "price",
          "type": "uint256"
        }
      ],
      "name": "MarketItemRelisted",
      "type": "event"
    },
    {
      "anonymous": false,
      "inputs": [
        {
          "indexed": true,
          "internalType": "uint256",
          "name": "tokenId",
          "type": "uint256"
        },
        {
          "indexed": false,
          "internalType": "address",
          "name": "seller",
          "type": "address"
        }
      ],
      "name": "MarketItemRemoved",
      "type": "event"
    },
    {
      "anonymous": false,
      "inputs": [
        {
          "indexed": true,
          "internalType": "uint256",
          "name": "tokenId",
          "type": "uint256"
        },
        {
          "indexed": false,
          "internalType": "address",
          "name": "seller",
          "type": "address"
        },
        {
          "indexed": false,
          "internalType": "address",
          "name": "buyer",
          "type": "address"
        },
        {
          "indexed": false,
          "internalType": "uint256",
          "name": "price",
          "type": "uint256"
        }
      ],
      "name": "MarketItemSold",
      "type": "event"
    },
    {
      "anonymous": false,
      "inputs": [
        {
          "indexed": true,
          "internalType": "uint256",
          "name": "tokenId",
          "type": "uint256"
        },
        {
          "indexed": false,
          "internalType": "address",
          "name": "from",
          "type": "address"
        },
        {
          "indexed": false,
          "internalType": "address",
          "name": "to",
          "type": "address"
        }
      ],
      "name": "MarketItemTransferred",
      "type": "event"
    },
    {
      "anonymous": false,
      "inputs": [
        {
          "indexed": true,
          "internalType": "address",
          "name": "marketplaceAddress",
          "type": "address"
        }
      ],
      "name": "MarketplaceAddressSet",
      "type": "event"
    },
    {
      "anonymous": false,
      "inputs": [
        {
          "indexed": false,
          "internalType": "uint256",
          "name": "_tokenId",
          "type": "uint256"
        }
      ],
      "name": "MetadataUpdate",
      "type": "event"
    },
    {
      "anonymous": false,
      "inputs": [
        {
          "indexed": true,
          "internalType": "uint256",
          "name": "tokenId",
          "type": "uint256"
        },
        {
          "indexed": false,
          "internalType": "address",
          "name": "owner",
          "type": "address"
        }
      ],
      "name": "TokenCreated",
      "type": "event"
    },
    {
      "anonymous": false,
      "inputs": [
        {
          "indexed": true,
          "internalType": "address",
          "name": "from",
          "type": "address"
        },
        {
          "indexed": true,
          "internalType": "address",
          "name": "to",
          "type": "address"
        },
        {
          "indexed": true,
          "internalType": "uint256",
          "name": "tokenId",
          "type": "uint256"
        }
      ],
      "name": "Transfer",
      "type": "event"
    },
    {
      "inputs": [
        {
          "internalType": "address",
          "name": "to",
          "type": "address"
        },
        {
          "internalType": "uint256",
          "name": "tokenId",
          "type": "uint256"
        }
      ],
      "name": "approve",
      "outputs": [],
      "stateMutability": "nonpayable",
      "type": "function"
    },
    {
      "inputs": [
        {
          "internalType": "address",
          "name": "owner",
          "type": "address"
        }
      ],
      "name": "balanceOf",
      "outputs": [
        {
          "internalType": "uint256",
          "name": "",
          "type": "uint256"
        }
      ],
      "stateMutability": "view",
      "type": "function"
    },
    {
      "inputs": [
        {
          "internalType": "uint256",
          "name": "tokenId",
          "type": "uint256"
        },
        {
          "internalType": "uint256",
          "name": "newPrice",
          "type": "uint256"
        }
      ],
      "name": "changePrice",
      "outputs": [],
      "stateMutability": "nonpayable",
      "type": "function"
    },
    {
      "inputs": [
        {
          "internalType": "uint256",
          "name": "tokenId",
          "type": "uint256"
        }
      ],
      "name": "createMarketSale",
      "outputs": [],
      "stateMutability": "payable",
      "type": "function"
    },
    {
      "inputs": [
        {
          "internalType": "string",
          "name": "tokenURI",
          "type": "string"
        },
        {
          "internalType": "uint256",
          "name": "price",
          "type": "uint256"
        }
      ],
      "name": "createToken",
      "outputs": [
        {
          "internalType": "uint256",
          "name": "",
          "type": "uint256"
        }
      ],
      "stateMutability": "payable",
      "type": "function"
    },
    {
      "inputs": [
        {
          "internalType": "address",
          "name": "user",
          "type": "address"
        }
      ],
      "name": "getAllowanceFromGrant",
      "outputs": [
        {
          "internalType": "uint256",
          "name": "",
          "type": "uint256"
        }
      ],
      "stateMutability": "view",
      "type": "function"
    },
    {
      "inputs": [
        {
          "internalType": "uint256",
          "name": "tokenId",
          "type": "uint256"
        }
      ],
      "name": "getApproved",
      "outputs": [
        {
          "internalType": "address",
          "name": "",
          "type": "address"
        }
      ],
      "stateMutability": "view",
      "type": "function"
    },
    {
      "inputs": [],
      "name": "grantContract",
      "outputs": [
        {
          "internalType": "contract IGrantContract",
          "name": "",
          "type": "address"
        }
      ],
      "stateMutability": "view",
      "type": "function"
    },
    {
      "inputs": [
        {
          "internalType": "address",
          "name": "owner",
          "type": "address"
        },
        {
          "internalType": "address",
          "name": "operator",
          "type": "address"
        }
      ],
      "name": "isApprovedForAll",
      "outputs": [
        {
          "internalType": "bool",
          "name": "",
          "type": "bool"
        }
      ],
      "stateMutability": "view",
      "type": "function"
    },
    {
      "inputs": [],
      "name": "listingPrice",
      "outputs": [
        {
          "internalType": "uint256",
          "name": "",
          "type": "uint256"
        }
      ],
      "stateMutability": "view",
      "type": "function"
    },
    {
      "inputs": [],
      "name": "marketplaceAddress",
      "outputs": [
        {
          "internalType": "address",
          "name": "",
          "type": "address"
        }
      ],
      "stateMutability": "view",
      "type": "function"
    },
    {
      "inputs": [],
      "name": "name",
      "outputs": [
        {
          "internalType": "string",
          "name": "",
          "type": "string"
        }
      ],
      "stateMutability": "view",
      "type": "function"
    },
    {
      "inputs": [],
      "name": "owner",
      "outputs": [
        {
          "internalType": "address payable",
          "name": "",
          "type": "address"
        }
      ],
      "stateMutability": "view",
      "type": "function"
    },
    {
      "inputs": [
        {
          "internalType": "uint256",
          "name": "tokenId",
          "type": "uint256"
        }
      ],
      "name": "ownerOf",
      "outputs": [
        {
          "internalType": "address",
          "name": "",
          "type": "address"
        }
      ],
      "stateMutability": "view",
      "type": "function"
    },
    {
      "inputs": [
        {
          "internalType": "uint256",
          "name": "tokenId",
          "type": "uint256"
        }
      ],
      "name": "removeMarketItem",
      "outputs": [],
      "stateMutability": "nonpayable",
      "type": "function"
    },
    {
      "inputs": [
        {
          "internalType": "uint256",
          "name": "tokenId",
          "type": "uint256"
        },
        {
          "internalType": "uint256",
          "name": "price",
          "type": "uint256"
        }
      ],
      "name": "resellToken",
      "outputs": [],
      "stateMutability": "payable",
      "type": "function"
    },
    {
      "inputs": [
        {
          "internalType": "address",
          "name": "from",
          "type": "address"
        },
        {
          "internalType": "address",
          "name": "to",
          "type": "address"
        },
        {
          "internalType": "uint256",
          "name": "tokenId",
          "type": "uint256"
        }
      ],
      "name": "safeTransferFrom",
      "outputs": [],
      "stateMutability": "nonpayable",
      "type": "function"
    },
    {
      "inputs": [
        {
          "internalType": "address",
          "name": "from",
          "type": "address"
        },
        {
          "internalType": "address",
          "name": "to",
          "type": "address"
        },
        {
          "internalType": "uint256",
          "name": "tokenId",
          "type": "uint256"
        },
        {
          "internalType": "bytes",
          "name": "data",
          "type": "bytes"
        }
      ],
      "name": "safeTransferFrom",
      "outputs": [],
      "stateMutability": "nonpayable",
      "type": "function"
    },
    {
      "inputs": [
        {
          "internalType": "address",
          "name": "operator",
          "type": "address"
        },
        {
          "internalType": "bool",
          "name": "approved",
          "type": "bool"
        }
      ],
      "name": "setApprovalForAll",
      "outputs": [],
      "stateMutability": "nonpayable",
      "type": "function"
    },
    {
      "inputs": [
        {
          "internalType": "address",
          "name": "_grantContract",
          "type": "address"
        }
      ],
      "name": "setGrantContract",
      "outputs": [],
      "stateMutability": "nonpayable",
      "type": "function"
    },
    {
      "inputs": [
        {
          "internalType": "address",
          "name": "_marketplaceAddress",
          "type": "address"
        }
      ],
      "name": "setMarketplaceAddress",
      "outputs": [],
      "stateMutability": "nonpayable",
      "type": "function"
    },
    {
      "inputs": [
        {
          "internalType": "bytes4",
          "name": "interfaceId",
          "type": "bytes4"
        }
      ],
      "name": "supportsInterface",
      "outputs": [
        {
          "internalType": "bool",
          "name": "",
          "type": "bool"
        }
      ],
      "stateMutability": "view",
      "type": "function"
    },
    {
      "inputs": [],
      "name": "symbol",
      "outputs": [
        {
          "internalType": "string",
          "name": "",
          "type": "string"
        }
      ],
      "stateMutability": "view",
      "type": "function"
    },
    {
      "inputs": [
        {
          "internalType": "uint256",
          "name": "tokenId",
          "type": "uint256"
        }
      ],
      "name": "tokenURI",
      "outputs": [
        {
          "internalType": "string",
          "name": "",
          "type": "string"
        }
      ],
      "stateMutability": "view",
      "type": "function"
    },
    {
      "inputs": [],
      "name": "totalFees",
      "outputs": [
        {
          "internalType": "uint256",
          "name": "",
          "type": "uint256"
        }
      ],
      "stateMutability": "view",
      "type": "function"
    },
    {
      "inputs": [
        {
          "internalType": "address",
          "name": "from",
          "type": "address"
        },
        {
          "internalType": "address",
          "name": "to",
          "type": "address"
        },
        {
          "internalType": "uint256",
          "name": "tokenId",
          "type": "uint256"
        }
      ],
      "name": "transferFrom",
      "outputs": [],
      "stateMutability": "nonpayable",
      "type": "function"
    },
    {
      "inputs": [],
      "name": "withdrawFees",
      "outputs": [],
      "stateMutability": "nonpayable",
      "type": "function"
    },
    {
      "inputs": [],
      "name": "withdrawFunds",
      "outputs": [],
      "stateMutability": "nonpayable",
      "type": "function"
    }
  ],
  "bytecode": "0x608060405265e35fa931a000600a556000600b5534801561001f57600080fd5b506040518060400160405280600f81526020016e4e4654204d61726b6574706c61636560881b815250604051806040016040528060048152602001634e46544d60e01b8152508160009081610074919061013f565b506001610081828261013f565b5050600160075550600c80546001600160a01b031916331790556101fd565b634e487b7160e01b600052604160045260246000fd5b600181811c908216806100ca57607f821691505b6020821081036100ea57634e487b7160e01b600052602260045260246000fd5b50919050565b601f82111561013a57806000526020600020601f840160051c810160208510156101175750805b601f840160051c820191505b818110156101375760008155600101610123565b50505b505050565b81516001600160401b03811115610158576101586100a0565b61016c8161016684546100b6565b846100f0565b6020601f8211600181146101a057600083156101885750848201515b600019600385901b1c1916600184901b178455610137565b600084815260208120601f198516915b828110156101d057878501518255602094850194600190920191016101b0565b50848210156101ee5786840151600019600387901b60f8161c191681555b50505050600190811b01905550565b6125d18061020c6000396000f3fe6080604052600436106101b75760003560e01c80637fb770cb116100ec578063b88d4fde1161008a578063c87b56dd11610064578063c87b56dd146104ac578063daa17f49146104cc578063e219fc75146104ec578063e985e9c5146104ff57600080fd5b8063b88d4fde14610463578063be9af53614610483578063c78f19f91461049657600080fd5b8063a22cb465116100c6578063a22cb465146103e3578063a7ad71df14610403578063b3de019c14610423578063b47cc5561461044357600080fd5b80637fb770cb1461038e5780638da5cb5b146103ae57806395d89b41146103ce57600080fd5b806324600fc31161015957806362bb809c1161013357806362bb809c1461031b5780636352211e1461033b57806370a082311461035b57806372b3b6201461037b57600080fd5b806324600fc3146102d157806342842e0e146102e6578063476343ee1461030657600080fd5b8063095ea7b311610195578063095ea7b31461024b57806313114a9d1461026d57806322d468521461029157806323b872dd146102b157600080fd5b806301ffc9a7146101bc57806306fdde03146101f1578063081812fc14610213575b600080fd5b3480156101c857600080fd5b506101dc6101d7366004611fcc565b61051f565b60405190151581526020015b60405180910390f35b3480156101fd57600080fd5b5061020661054a565b6040516101e89190612039565b34801561021f57600080fd5b5061023361022e36600461204c565b6105dc565b6040516001600160a01b0390911681526020016101e8565b34801561025757600080fd5b5061026b61026636600461207c565b610605565b005b34801561027957600080fd5b50610283600b5481565b6040519081526020016101e8565b34801561029d57600080fd5b5061026b6102ac3660046120a6565b610614565b3480156102bd57600080fd5b5061026b6102cc3660046120c1565b610669565b3480156102dd57600080fd5b5061026b6106f4565b3480156102f257600080fd5b5061026b6103013660046120c1565b61082f565b34801561031257600080fd5b5061026b61084f565b34801561032757600080fd5b506102836103363660046120a6565b6109af565b34801561034757600080fd5b5061023361035636600461204c565b610a70565b34801561036757600080fd5b506102836103763660046120a6565b610a7b565b61028361038936600461218e565b610ac3565b34801561039a57600080fd5b5061026b6103a936600461204c565b610cc1565b3480156103ba57600080fd5b50600c54610233906001600160a01b031681565b3480156103da57600080fd5b50610206610e3f565b3480156103ef57600080fd5b5061026b6103fe3660046121e7565b610e4e565b34801561040f57600080fd5b50600e54610233906001600160a01b031681565b34801561042f57600080fd5b5061026b61043e366004612223565b610e59565b34801561044f57600080fd5b5061026b61045e3660046120a6565b610fd5565b34801561046f57600080fd5b5061026b61047e366004612245565b61109f565b61026b61049136600461204c565b6110b7565b3480156104a257600080fd5b50610283600a5481565b3480156104b857600080fd5b506102066104c736600461204c565b611273565b3480156104d857600080fd5b50600d54610233906001600160a01b031681565b61026b6104fa366004612223565b611384565b34801561050b57600080fd5b506101dc61051a3660046122c1565b611565565b60006001600160e01b03198216632483248360e11b1480610544575061054482611593565b92915050565b606060008054610559906122f4565b80601f0160208091040260200160405190810160405280929190818152602001828054610585906122f4565b80156105d25780601f106105a7576101008083540402835291602001916105d2565b820191906000526020600020905b8154815290600101906020018083116105b557829003601f168201915b5050505050905090565b60006105e7826115e3565b506000828152600460205260409020546001600160a01b0316610544565b61061082823361161c565b5050565b600c546001600160a01b031633146106475760405162461bcd60e51b815260040161063e9061232e565b60405180910390fd5b600e80546001600160a01b0319166001600160a01b0392909216919091179055565b6001600160a01b03821661069357604051633250574960e11b81526000600482015260240161063e565b60006106a0838333611629565b9050836001600160a01b0316816001600160a01b0316146106ee576040516364283d7b60e01b81526001600160a01b038086166004830152602482018490528216604482015260640161063e565b50505050565b6106fc611722565b33600090815260106020526040902054806107505760405162461bcd60e51b81526020600482015260146024820152734e6f2066756e647320746f20776974686472617760601b604482015260640161063e565b336000818152601060205260408082208290555190919083908381818185875af1925050503d80600081146107a1576040519150601f19603f3d011682016040523d82523d6000602084013e6107a6565b606091505b50509050806107eb5760405162461bcd60e51b815260206004820152601160248201527015da5d1a191c985dd85b0819985a5b1959607a1b604482015260640161063e565b60405182815233907feaff4b37086828766ad3268786972c0cd24259d4c87a80f9d3963a3c3d999b0d906020015b60405180910390a2505061082d6001600755565b565b61084a8383836040518060200160405280600081525061109f565b505050565b600c546001600160a01b031633146108795760405162461bcd60e51b815260040161063e9061232e565b610881611722565b6000600b54116108c95760405162461bcd60e51b81526020600482015260136024820152724e6f206665657320746f20776974686472617760681b604482015260640161063e565b600b8054600091829055600c546040519192916001600160a01b039091169083908381818185875af1925050503d8060008114610922576040519150601f19603f3d011682016040523d82523d6000602084013e610927565b606091505b50509050806109705760405162461bcd60e51b8152602060048201526015602482015274119959481dda5d1a191c985dd85b0819985a5b1959605a1b604482015260640161063e565b600c546040518381526001600160a01b03909116907fc0819c13be868895eb93e40eaceb96de976442fa1d404e5c55f14bb65a8c489a90602001610819565b600d546000906001600160a01b031633146109fd5760405162461bcd60e51b815260206004820152600e60248201526d139bdd08185d5d1a1bdc9a5e995960921b604482015260640161063e565b600e546040516375ad331760e11b81526001600160a01b0384811660048301529091169063eb5a662e90602401602060405180830381865afa158015610a47573d6000803e3d6000fd5b505050506040513d601f19601f820116820180604052508101906105449190612374565b919050565b6000610544826115e3565b60006001600160a01b038216610aa7576040516322718ad960e21b81526000600482015260240161063e565b506001600160a01b031660009081526003602052604090205490565b6000600a543414610b165760405162461bcd60e51b815260206004820152601a60248201527f496e73756666696369656e74206c697374696e67207072696365000000000000604482015260640161063e565b600e546040516375ad331760e11b81523360048201526000916001600160a01b03169063eb5a662e90602401602060405180830381865afa158015610b5f573d6000803e3d6000fd5b505050506040513d601f19601f82011682018060405250810190610b839190612374565b905060008111610bd55760405162461bcd60e51b815260206004820152601c60248201527f4e6f206772616e7420616c6c6f77616e636520617661696c61626c6500000000604482015260640161063e565b600160086000828254610be891906123a3565b9091555050600854610bfa338261174c565b610c0481866117b1565b610c0e8185611801565b600e546040516307fe547d60e31b81523360048201526001600160a01b0390911690633ff2a3e890602401600060405180830381600087803b158015610c5357600080fd5b505af1158015610c67573d6000803e3d6000fd5b50505050600a54600b6000828254610c7f91906123a3565b909155505060405133815281907fc331dc3e37e2ab4d6e65d42a119ffdfab8481b9be24d26704f9f4b4a331d4dd09060200160405180910390a2949350505050565b6000818152600f60205260409020600101546001600160a01b03163314610d365760405162461bcd60e51b8152602060048201526024808201527f4f6e6c79207468652073656c6c65722063616e2072656d6f76652074686973206044820152636974656d60e01b606482015260840161063e565b6000818152600f602052604090206004015460ff1615610d985760405162461bcd60e51b815260206004820152601a60248201527f4974656d2068617320616c7265616479206265656e20736f6c64000000000000604482015260640161063e565b30610da282610a70565b6001600160a01b031614610dc85760405162461bcd60e51b815260040161063e906123b6565b610dd330338361198c565b6000818152600f6020908152604091829020600281018054336001600160a01b0319918216811790925560019092018054909216909155915191825282917f4571e34ad3a2ae60bbf6849fda18f900ad12c781f5c284f02319195e6c415dac910160405180910390a250565b606060018054610559906122f4565b610610338383611a3c565b6000828152600f60205260409020600101546001600160a01b03163314610ece5760405162461bcd60e51b8152602060048201526024808201527f4f6e6c79207468652073656c6c65722063616e206368616e67652074686520706044820152637269636560e01b606482015260840161063e565b60008111610f1e5760405162461bcd60e51b815260206004820152601f60248201527f5072696365206d7573742062652067726561746572207468616e207a65726f00604482015260640161063e565b6000828152600f602052604090206004015460ff1615610f805760405162461bcd60e51b815260206004820152601a60248201527f4974656d2068617320616c7265616479206265656e20736f6c64000000000000604482015260640161063e565b6000828152600f6020908152604091829020600301839055815133815290810183905283917ff8e934e738d0efb7cd7a8d3f57c6cb5eca25c6b9e3fbd7fc50382b8f9505dfb291015b60405180910390a25050565b600c546001600160a01b03163314610fff5760405162461bcd60e51b815260040161063e9061232e565b6001600160a01b0381166110555760405162461bcd60e51b815260206004820152601b60248201527f496e76616c6964206d61726b6574706c61636520616464726573730000000000604482015260640161063e565b600d80546001600160a01b0319166001600160a01b0383169081179091556040517fbf54ea83ad908567bc5ad3199eab9f6f191d26c28764b57f9927110b97a971fd90600090a250565b6110aa848484610669565b6106ee3385858585611adb565b6000818152600f60205260409020600301543481146111185760405162461bcd60e51b815260206004820152601e60248201527f506c65617365207375626d6974207468652061736b696e672070726963650000604482015260640161063e565b3061112283610a70565b6001600160a01b0316146111485760405162461bcd60e51b815260040161063e906123b6565b6000828152600f60205260408120600180820180546002840180546001600160a01b031990811633179091556004909401805460ff1916841790559283169055600980546001600160a01b039093169391929091906111a89084906123a3565b909155506111b9905030338561198c565b6001600160a01b038116600090815260106020526040812080543492906111e19084906123a3565b9091555050600c54600a546040516001600160a01b039092169181156108fc0291906000818181858888f19350505050158015611222573d6000803e3d6000fd5b50604080516001600160a01b038316815233602082015290810183905283907f150ffca547cf855e7fcf5daa82e41c6523b5fb2c8b1309bbb6cf2f87c6ae5a319060600160405180910390a2505050565b606061127e826115e3565b5060008281526006602052604081208054611298906122f4565b80601f01602080910402602001604051908101604052809291908181526020018280546112c4906122f4565b80156113115780601f106112e657610100808354040283529160200191611311565b820191906000526020600020905b8154815290600101906020018083116112f457829003601f168201915b50505050509050600061132f60408051602081019091526000815290565b90508051600003611341575092915050565b81511561137357808260405160200161135b9291906123f9565b60405160208183030381529060405292505050919050565b61137c84611c06565b949350505050565b6000828152600f60205260409020600201546001600160a01b031633146113ff5760405162461bcd60e51b815260206004820152602960248201527f4f6e6c7920746865206f776e65722063616e20706572666f726d20746869732060448201526837b832b930ba34b7b760b91b606482015260840161063e565b600a5434146114615760405162461bcd60e51b815260206004820152602860248201527f5072696365206d75737420626520657175616c20746f20746865206c697374696044820152676e6720707269636560c01b606482015260840161063e565b3361146b83610a70565b6001600160a01b0316146114c15760405162461bcd60e51b815260206004820152601e60248201527f43616c6c6572206e6f206c6f6e676572206f776e732074686973204e46540000604482015260640161063e565b6000828152600f6020526040812060048101805460ff1916905560038101839055600180820180546001600160a01b03199081163317909155600290920180549092163017909155600980549192909161151c908490612428565b9091555061152d905033308461198c565b604080513381526020810183905283917fb2ba12d2566848b13548a3741edb565b69d3cbce7796959cd67431610207eb139101610fc9565b6001600160a01b03918216600090815260056020908152604080832093909416825291909152205460ff1690565b60006001600160e01b031982166380ac58cd60e01b14806115c457506001600160e01b03198216635b5e139f60e01b145b8061054457506301ffc9a760e01b6001600160e01b0319831614610544565b6000818152600260205260408120546001600160a01b03168061054457604051637e27328960e01b81526004810184905260240161063e565b61084a8383836001611c7b565b6000828152600260205260408120546001600160a01b039081169083161561165657611656818486611d81565b6001600160a01b0381161561169457611673600085600080611c7b565b6001600160a01b038116600090815260036020526040902080546000190190555b6001600160a01b038516156116c3576001600160a01b0385166000908152600360205260409020805460010190555b60008481526002602052604080822080546001600160a01b0319166001600160a01b0389811691821790925591518793918516917fddf252ad1be2c89b69c2b068fc378daa952ba7f163c4a11628f55a4df523b3ef91a4949350505050565b60026007540361174557604051633ee5aeb560e01b815260040160405180910390fd5b6002600755565b6001600160a01b03821661177657604051633250574960e11b81526000600482015260240161063e565b600061178483836000611629565b90506001600160a01b0381161561084a576040516339e3563760e11b81526000600482015260240161063e565b60008281526006602052604090206117c98282612482565b506040518281527ff8e1a15aba9398e019f0b49df1a4fde98ee17ae345cb5f6b5e2c27f5033e8ce79060200160405180910390a15050565b600081116118515760405162461bcd60e51b815260206004820152601860248201527f5072696365206d757374206265206174206c6561737420310000000000000000604482015260640161063e565b600a5434146118ae5760405162461bcd60e51b8152602060048201526024808201527f5072696365206d75737420626520657175616c20746f206c697374696e6720706044820152637269636560e01b606482015260840161063e565b6040805160a08101825283815233602080830182815230848601818152606086018881526000608088018181528b8252600f909652979097209551865591516001860180546001600160a01b03199081166001600160a01b0393841617909155925160028701805490941691161790915593516003840155516004909201805460ff191692151592909217909155611946918461198c565b604080513381523060208201529081018290526000606082015282907fb640004f1d14576d0c209e240cad0410e0d8c0c33a09375861fbadae2588a98d90608001610fc9565b6001600160a01b0382166119b657604051633250574960e11b81526000600482015260240161063e565b60006119c483836000611629565b90506001600160a01b0381166119f057604051637e27328960e01b81526004810183905260240161063e565b836001600160a01b0316816001600160a01b0316146106ee576040516364283d7b60e01b81526001600160a01b038086166004830152602482018490528216604482015260640161063e565b6001600160a01b038216611a6e57604051630b61174360e31b81526001600160a01b038316600482015260240161063e565b6001600160a01b03838116600081815260056020908152604080832094871680845294825291829020805460ff191686151590811790915591519182527f17307eab39ab6107e8899845ad3d59bd9653f200f220920489ca2b5937696c31910160405180910390a3505050565b6001600160a01b0383163b15611bff57604051630a85bd0160e11b81526001600160a01b0384169063150b7a0290611b1d908890889087908790600401612541565b6020604051808303816000875af1925050508015611b58575060408051601f3d908101601f19168201909252611b559181019061257e565b60015b611bc1573d808015611b86576040519150601f19603f3d011682016040523d82523d6000602084013e611b8b565b606091505b508051600003611bb957604051633250574960e11b81526001600160a01b038516600482015260240161063e565b805181602001fd5b6001600160e01b03198116630a85bd0160e11b14611bfd57604051633250574960e11b81526001600160a01b038516600482015260240161063e565b505b5050505050565b6060611c11826115e3565b506000611c2960408051602081019091526000815290565b90506000815111611c495760405180602001604052806000815250611c74565b80611c5384611de5565b604051602001611c649291906123f9565b6040516020818303038152906040525b9392505050565b8080611c8f57506001600160a01b03821615155b15611d51576000611c9f846115e3565b90506001600160a01b03831615801590611ccb5750826001600160a01b0316816001600160a01b031614155b8015611cde5750611cdc8184611565565b155b15611d075760405163a9fbf51f60e01b81526001600160a01b038416600482015260240161063e565b8115611d4f5783856001600160a01b0316826001600160a01b03167f8c5be1e5ebec7d5bd14f71427d1e84f3dd0314c0f7b2291e5b200ac8c7c3b92560405160405180910390a45b505b5050600090815260046020526040902080546001600160a01b0319166001600160a01b0392909216919091179055565b611d8c838383611e78565b61084a576001600160a01b038316611dba57604051637e27328960e01b81526004810182905260240161063e565b60405163177e802f60e01b81526001600160a01b03831660048201526024810182905260440161063e565b60606000611df283611edb565b600101905060008167ffffffffffffffff811115611e1257611e126120fe565b6040519080825280601f01601f191660200182016040528015611e3c576020820181803683370190505b5090508181016020015b600019016f181899199a1a9b1b9c1cb0b131b232b360811b600a86061a8153600a8504945084611e4657509392505050565b60006001600160a01b0383161580159061137c5750826001600160a01b0316846001600160a01b03161480611eb25750611eb28484611565565b8061137c5750506000908152600460205260409020546001600160a01b03908116911614919050565b60008072184f03e93ff9f4daa797ed6e38ed64bf6a1f0160401b8310611f1a5772184f03e93ff9f4daa797ed6e38ed64bf6a1f0160401b830492506040015b6d04ee2d6d415b85acef81000000008310611f46576d04ee2d6d415b85acef8100000000830492506020015b662386f26fc100008310611f6457662386f26fc10000830492506010015b6305f5e1008310611f7c576305f5e100830492506008015b6127108310611f9057612710830492506004015b60648310611fa2576064830492506002015b600a83106105445760010192915050565b6001600160e01b031981168114611fc957600080fd5b50565b600060208284031215611fde57600080fd5b8135611c7481611fb3565b60005b83811015612004578181015183820152602001611fec565b50506000910152565b60008151808452612025816020860160208601611fe9565b601f01601f19169290920160200192915050565b602081526000611c74602083018461200d565b60006020828403121561205e57600080fd5b5035919050565b80356001600160a01b0381168114610a6b57600080fd5b6000806040838503121561208f57600080fd5b61209883612065565b946020939093013593505050565b6000602082840312156120b857600080fd5b611c7482612065565b6000806000606084860312156120d657600080fd5b6120df84612065565b92506120ed60208501612065565b929592945050506040919091013590565b634e487b7160e01b600052604160045260246000fd5b60008067ffffffffffffffff84111561212f5761212f6120fe565b50604051601f19601f85018116603f0116810181811067ffffffffffffffff8211171561215e5761215e6120fe565b60405283815290508082840185101561217657600080fd5b83836020830137600060208583010152509392505050565b600080604083850312156121a157600080fd5b823567ffffffffffffffff8111156121b857600080fd5b8301601f810185136121c957600080fd5b6121d885823560208401612114565b95602094909401359450505050565b600080604083850312156121fa57600080fd5b61220383612065565b91506020830135801515811461221857600080fd5b809150509250929050565b6000806040838503121561223657600080fd5b50508035926020909101359150565b6000806000806080858703121561225b57600080fd5b61226485612065565b935061227260208601612065565b925060408501359150606085013567ffffffffffffffff81111561229557600080fd5b8501601f810187136122a657600080fd5b6122b587823560208401612114565b91505092959194509250565b600080604083850312156122d457600080fd5b6122dd83612065565b91506122eb60208401612065565b90509250929050565b600181811c9082168061230857607f821691505b60208210810361232857634e487b7160e01b600052602260045260246000fd5b50919050565b60208082526026908201527f4f6e6c7920746865206f776e65722063616e20706572666f726d20746869732060408201526530b1ba34b7b760d11b606082015260800190565b60006020828403121561238657600080fd5b5051919050565b634e487b7160e01b600052601160045260246000fd5b808201808211156105445761054461238d565b60208082526023908201527f4d61726b6574706c616365206e6f206c6f6e676572206f776e7320746869732060408201526213919560ea1b606082015260800190565b6000835161240b818460208801611fe9565b83519083019061241f818360208801611fe9565b01949350505050565b818103818111156105445761054461238d565b601f82111561084a57806000526020600020601f840160051c810160208510156124625750805b601f840160051c820191505b81811015611bff576000815560010161246e565b815167ffffffffffffffff81111561249c5761249c6120fe565b6124b0816124aa84546122f4565b8461243b565b6020601f8211600181146124e457600083156124cc5750848201515b600019600385901b1c1916600184901b178455611bff565b600084815260208120601f198516915b8281101561251457878501518255602094850194600190920191016124f4565b50848210156125325786840151600019600387901b60f8161c191681555b50505050600190811b01905550565b6001600160a01b03858116825284166020820152604081018390526080606082018190526000906125749083018461200d565b9695505050505050565b60006020828403121561259057600080fd5b8151611c7481611fb356fea2646970667358221220abd923831d5dd85f14602e8c700bd3b265e4e65e908855675169e978dff6bf5164736f6c634300081b0033",
  "linkReferences": {},
  "deployedLinkReferences": {}
}